:020000040800F2
:100000000050002019030008E7010008E90100087A
:10001000EB010008ED010008EF01000800000000FE
:10002000000000000000000000000000F1010008D6
:10003000F301000800000000F5010008F7010008C6
:100040006103000861030008610300086103000800
:1000500061030008610300086103000861030008F0
:1000600061030008610300086103000861030008E0
:1000700061030008610300086103000861030008D0
:1000800061030008610300086103000861030008C0
:1000900061030008610300086103000861030008B0
:1000A00061030008610300086103000861030008A0
:1000B0006103000861030008610300086103000890
:1000C0006103000861030008610300086103000880
:1000D0006103000861030008610300086103000870
:1000E00061030008610300086103000800000000CC
:1000F0000000000000000000000000000000000000
:0C01000000000000000000005FF808F1A3
:10010C000348044B834202D0034B03B1184770479A
:10011C000000002000000020000000000548064BF5
:10012C001B1AD90F01EBA301491002D0034B03B1E9
:10013C00184770470000002000000020000000005D
:10014C0010B5064C237843B9FFF7DAFF044B13B113
:10015C000448AFF300800123237010BD0000002081
:10016C00000000006403000808B5044B1BB10449EF
:10017C000448AFF30080BDE80840CFE70000000062
:10018C00040000206403000870B50F4B0F4DAB4208
:10019C00A3EB050607D00024B61055F8043B013438
:1001AC009847A642F9D800F0D7F8094D094B5E1BC9
:1001BC00AB424FEAA60606D0002455F8043B0134A6
:1001CC009847A642F9D870BD7C0300087C03000850
:1001DC007C03000880030008FEE77047FEE7FEE79B
:1001EC00FEE7FEE7704770477047704782B0002308
:1001FC00019300932C4A136843F4803313602A4B09
:10020C001B6803F400330093019B01330193009BA3
:10021C001BB9019BB3F5A06FF1D1234B1B6813F4F1
:10022C00003F06D001230093009B012B04D002B0A9
:10023C00704700230093F7E71C4B1A6842F010023A
:10024C001A601A6822F003021A601A6842F002025D
:10025C001A60A3F580535A685A605A685A605A68F3
:10026C0042F480625A605A6822F47C125A605A68CE
:10027C0042F4E8125A601A6842F080721A600A4B13
:10028C001B6813F0007FFAD0074B5A6822F0030268
:10029C005A605A6842F002025A60034B5B6803F0E2
:1002AC000C03082BF9D1C2E70010024000200240D9
:1002BC0008B5FFF79BFF08BD08B5104B1A6842F054
:1002CC0001021A6059680E4A0A405A601A6822F0F4
:1002DC00847222F480321A601A6822F480221A6026
:1002EC005A6822F4FE025A604FF41F029A60FFF71C
:1002FC00DFFF044B044A9A6008BD00BF00100240A7
:10030C000000FFF800ED00E000300008002103E0E1
:10031C000B4B5B58435004310A480B4B42189A4222
:10032C00F6D30A4A02E0002342F8043B084B9A42F7
:10033C00F9D3FFF7C1FFFFF727FFFFF74DFF70471A
:10034C0084030008000000200000002000000020B2
:10035C001C000020FEE70000F8B500BFF8BC08BC8C
:10036C009E467047F8B500BFF8BC08BC9E46704767
:04037C0075010008FF
:040380004D01000823
:0400000508000319D3
:00000001FF
