:020000040800F2
:10000000005000201D0400081D0200081F02000807
:100010002102000823020008250200080000000059
:10002000000000000000000000000000270200089F
:1000300029020008000000002B0200082D02000821
:1000400065040008650400086504000865040008EC
:1000500065040008650400086504000865040008DC
:1000600065040008650400086504000865040008CC
:1000700065040008650400086504000865040008BC
:1000800065040008650400086504000865040008AC
:10009000650400086504000865040008650400089C
:1000A000650400086504000865040008650400088C
:1000B000650400086504000865040008650400087C
:1000C000650400086504000865040008650400086C
:1000D000650400086504000865040008650400085C
:1000E00065040008650400086504000800000000BD
:1000F0000000000000000000000000000000000000
:0C01000000000000000000005FF808F1A3
:10010C000348044B834202D0034B03B1184770479A
:10011C000000002000000020000000000548064BF5
:10012C001B1AD90F01EBA301491002D0034B03B1E9
:10013C00184770470000002000000020000000005D
:10014C0010B5064C237843B9FFF7DAFF044B13B113
:10015C000448AFF300800123237010BD0000002081
:10016C00000000006804000808B5044B1BB10449EA
:10017C000448AFF30080BDE80840CFE70000000062
:10018C00040000206804000870B50F4B0F4DAB4203
:10019C00A3EB050607D00024B61055F8043B013438
:1001AC009847A642F9D800F059F9094D094B5E1B46
:1001BC00AB424FEAA60606D0002455F8043B0134A6
:1001CC009847A642F9D870BD800400088004000846
:1001DC00800400088404000800B583B001211020BD
:1001EC0000F008F910238DF807304FF40053ADF8E8
:1001FC00043003238DF8063001A9044800F0A2F85E
:10020C00024AD36883F40053D360F9E7001001402D
:10021C007047FEE7FEE7FEE7FEE770477047704762
:10022C007047000082B00023019300932C4A13689E
:10023C0043F4803313602A4B1B6803F400330093A0
:10024C00019B01330193009B1BB9019BB3F5A06F7C
:10025C00F1D1234B1B6813F4003F06D0012300930C
:10026C00009B012B04D002B0704700230093F7E7EA
:10027C001C4B1A6842F010021A601A6822F0030232
:10028C001A601A6842F002021A60A3F580535A6889
:10029C005A605A685A605A6842F480625A605A68C6
:1002AC0022F47C125A605A6842F4E8125A601A68B6
:1002BC0042F080721A600A4B1B6813F0007FFAD070
:1002CC00074B5A6822F003025A605A6842F0020245
:1002DC005A60034B5B6803F00C03082BF9D1C2E79F
:1002EC00001002400020024008B5FFF79BFF08BD3C
:1002FC0008B5104B1A6842F001021A6059680E4A90
:10030C000A405A601A6822F0847222F480321A6011
:10031C001A6822F480221A605A6822F4FE025A608B
:10032C004FF41F029A60FFF7DFFF044B044A9A60F8
:10033C0008BD00BF001002400000FFF800ED00E017
:10034C000030000830B5CB7803F00F02964613F05E
:10035C00100F03D091F802E04EEA020E0B78FBB1BD
:10036C000568002301E042610133072B17D80122F5
:10037C009A40B1F800C032EA0C0CF5D19C004FF059
:10038C000F0C0CFA04FC25EA0C050EFA04F42543B8
:10039C00CC78282CE7D0482CE6D10261E4E7056044
:1003AC000B88FF2B25D94568002303E0CC78482C1B
:1003BC001CD00133072B1BD803F1080C012202FAC5
:1003CC000CF2B1F800C032EA0C0CF2D19C004FF0E8
:1003DC000F0C0CFA04FC25EA0C0C0EFA04F444EA9B
:1003EC000C05CC78282CE1D14261DFE70261E0E713
:1003FC00456030BD21B1054A936903439361704751
:10040C00024A936923EA000393617047001002408B
:10041C00002103E00B4B5B58435004310A480B4B53
:10042C0042189A42F6D30A4A02E0002342F8043BEF
:10043C00084B9A42F9D3FFF75BFFFFF7A5FEFFF7D6
:10044C00CBFE70478804000800000020000000204C
:10045C00000000201C000020FEE70000F8B500BFE3
:10046C00F8BC08BC9E467047F8B500BFF8BC08BC89
:04047C009E467047E1
:0404800075010008FA
:040484004D0100081E
:040000050800041DCE
:00000001FF
